:03000000020003F8
:0C000300787FE4F6D8FD75811902004AF0
:1000BB000A083F065B4F666D7D077F6F08120001D4
:0600CB0002030405060714
:1000D200EF1FAA0670011E4A600BE4FDEDC3947B7C
:0500E20050EE0D80F757
:0100E70022F6
:10008F00E4FCF580F5A074122CF8E6F5A074082CAA
:10009F00F8E6F5807FF47E011200D2E4F5807F64EC
:0C00AF00FE1200D20CBC08DEE4FC80DA7B
:10000F0002008FE493A3F8E493A34003F68001F278
:10001F0008DFF48029E493A3F85407240CC8C333F2
:10002F00C4540F4420C8834004F456800146F6DFC1
:10003F00E4800B01020408102040809000BBE47E96
:10004F00019360BCA3FF543F30E509541FFEE493B6
:10005F00A360010ECF54C025E060A840B8E493A37D
:10006F00FAE493A3F8E493A3C8C582C8CAC583CAA8
:10007F00F0A3C8C582C8CAC583CADFE9DEE780BE60
:0100D100002E
:00000001FF
