:0B0006000910FFFEFDFBF7EFDFBF7FDE
:0400E0007FF47E012A
:1000E400EF1FAA0670011E4A600BE4FDEDC3947B6A
:0500F40050EE0D80F745
:0100F90022E4
:0F010F00D2AFD2A8D2AAD288D28AD2BAC2B8228C
:030003000200FAFE
:1000FA00C0E0C0D075D00075900F1200E07590F086
:05010A001200E080F28C
:030013000200A246
:0700A200C0E0C0D075D008DA
:1000A9007C03AF0C1CEF600E7590FF1200E0759099
:0600B900001200E080ECE3
:0500BF00D0D0D0E032BA
:0300C40012010F17
:1000C700E4F51974102519F8E6F5901200E0051902
:0900D700E519C3940940EC80E72F
:03000000020016E5
:0C001600787FE4F6D8FD75811902005DCA
:100022000200C4E493A3F8E493A34003F68001F230
:1000320008DFF48029E493A3F85407240CC8C333DF
:10004200C4540F4420C8834004F456800146F6DFAE
:10005200E4800B0102040810204080900006E47E38
:10006200019360BCA3FF543F30E509541FFEE493A3
:10007200A360010ECF54C025E060A840B8E493A36A
:10008200FAE493A3F8E493A3C8C582C8CAC583CA95
:10009200F0A3C8C582C8CAC583CADFE9DEE780BE4D
:0100110000EE
:00000001FF
